{
  "_format": "hh-sol-artifact-1",
  "contractName": "BlOcXTacToe",
  "sourceName": "contracts/BlOcXTacToe.sol",
  "abi": [
    {
      "inputs": [],
      "stateMutability": "nonpayable",
      "type": "constructor"
    },
    {
      "inputs": [],
      "name": "Accepted",
      "type": "error"
    },
    {
      "inputs": [],
      "name": "BetMismatch",
      "type": "error"
    },
    {
      "inputs": [],
      "name": "Claimed",
      "type": "error"
    },
    {
      "inputs": [],
      "name": "EnforcedPause",
      "type": "error"
    },
    {
      "inputs": [],
      "name": "ExpectedPause",
      "type": "error"
    },
    {
      "inputs": [],
      "name": "InvalidAddr",
      "type": "error"
    },
    {
      "inputs": [],
      "name": "InvalidBet",
      "type": "error"
    },
    {
      "inputs": [],
      "name": "InvalidFee",
      "type": "error"
    },
    {
      "inputs": [],
      "name": "InvalidId",
      "type": "error"
    },
    {
      "inputs": [],
      "name": "InvalidK",
      "type": "error"
    },
    {
      "inputs": [],
      "name": "InvalidMove",
      "type": "error"
    },
    {
      "inputs": [],
      "name": "InvalidSize",
      "type": "error"
    },
    {
      "inputs": [],
      "name": "InvalidTimeout",
      "type": "error"
    },
    {
      "inputs": [],
      "name": "InvalidUser",
      "type": "error"
    },
    {
      "inputs": [],
      "name": "NoReward",
      "type": "error"
    },
    {
      "inputs": [],
      "name": "NotActive",
      "type": "error"
    },
    {
      "inputs": [],
      "name": "NotAdmin",
      "type": "error"
    },
    {
      "inputs": [],
      "name": "NotReg",
      "type": "error"
    },
    {
      "inputs": [],
      "name": "NotTurn",
      "type": "error"
    },
    {
      "inputs": [],
      "name": "NotWinner",
      "type": "error"
    },
    {
      "inputs": [],
      "name": "Occupied",
      "type": "error"
    },
    {
      "inputs": [
        {
          "internalType": "address",
          "name": "owner",
          "type": "address"
        }
      ],
      "name": "OwnableInvalidOwner",
      "type": "error"
    },
    {
      "inputs": [
        {
          "internalType": "address",
          "name": "account",
          "type": "address"
        }
      ],
      "name": "OwnableUnauthorizedAccount",
      "type": "error"
    },
    {
      "inputs": [],
      "name": "ReentrancyGuardReentrantCall",
      "type": "error"
    },
    {
      "inputs": [],
      "name": "SelfChallenge",
      "type": "error"
    },
    {
      "inputs": [],
      "name": "SelfPlay",
      "type": "error"
    },
    {
      "inputs": [],
      "name": "Started",
      "type": "error"
    },
    {
      "inputs": [],
      "name": "Timeout",
      "type": "error"
    },
    {
      "inputs": [],
      "name": "TokenNotSup",
      "type": "error"
    },
    {
      "inputs": [],
      "name": "TransferFailed",
      "type": "error"
    },
    {
      "inputs": [],
      "name": "Unauthorized",
      "type": "error"
    },
    {
      "inputs": [],
      "name": "UsernameTaken",
      "type": "error"
    },
    {
      "anonymous": false,
      "inputs": [
        {
          "indexed": true,
          "internalType": "address",
          "name": "admin",
          "type": "address"
        }
      ],
      "name": "AdminAdded",
      "type": "event"
    },
    {
      "anonymous": false,
      "inputs": [
        {
          "indexed": true,
          "internalType": "address",
          "name": "admin",
          "type": "address"
        }
      ],
      "name": "AdminRemoved",
      "type": "event"
    },
    {
      "anonymous": false,
      "inputs": [
        {
          "indexed": true,
          "internalType": "uint256",
          "name": "challengeId",
          "type": "uint256"
        },
        {
          "indexed": true,
          "internalType": "uint256",
          "name": "gameId",
          "type": "uint256"
        }
      ],
      "name": "ChallengeAccepted",
      "type": "event"
    },
    {
      "anonymous": false,
      "inputs": [
        {
          "indexed": true,
          "internalType": "uint256",
          "name": "challengeId",
          "type": "uint256"
        },
        {
          "indexed": true,
          "internalType": "address",
          "name": "challenger",
          "type": "address"
        },
        {
          "indexed": true,
          "internalType": "address",
          "name": "challenged",
          "type": "address"
        },
        {
          "indexed": false,
          "internalType": "uint256",
          "name": "betAmount",
          "type": "uint256"
        }
      ],
      "name": "ChallengeCreated",
      "type": "event"
    },
    {
      "anonymous": false,
      "inputs": [
        {
          "indexed": true,
          "internalType": "uint256",
          "name": "gameId",
          "type": "uint256"
        },
        {
          "indexed": true,
          "internalType": "address",
          "name": "playerOne",
          "type": "address"
        },
        {
          "indexed": false,
          "internalType": "uint256",
          "name": "betAmount",
          "type": "uint256"
        },
        {
          "indexed": false,
          "internalType": "uint8",
          "name": "moveIndex",
          "type": "uint8"
        },
        {
          "indexed": false,
          "internalType": "address",
          "name": "tokenAddress",
          "type": "address"
        }
      ],
      "name": "GameCreated",
      "type": "event"
    },
    {
      "anonymous": false,
      "inputs": [
        {
          "indexed": true,
          "internalType": "uint256",
          "name": "gameId",
          "type": "uint256"
        },
        {
          "indexed": true,
          "internalType": "address",
          "name": "winner",
          "type": "address"
        }
      ],
      "name": "GameForfeited",
      "type": "event"
    },
    {
      "anonymous": false,
      "inputs": [
        {
          "indexed": true,
          "internalType": "uint256",
          "name": "gameId",
          "type": "uint256"
        },
        {
          "indexed": true,
          "internalType": "address",
          "name": "playerTwo",
          "type": "address"
        },
        {
          "indexed": false,
          "internalType": "uint8",
          "name": "moveIndex",
          "type": "uint8"
        }
      ],
      "name": "GameJoined",
      "type": "event"
    },
    {
      "anonymous": false,
      "inputs": [
        {
          "indexed": true,
          "internalType": "uint256",
          "name": "gameId",
          "type": "uint256"
        },
        {
          "indexed": true,
          "internalType": "address",
          "name": "winner",
          "type": "address"
        },
        {
          "indexed": false,
          "internalType": "uint256",
          "name": "payout",
          "type": "uint256"
        }
      ],
      "name": "GameWon",
      "type": "event"
    },
    {
      "anonymous": false,
      "inputs": [
        {
          "indexed": false,
          "internalType": "uint256",
          "name": "newKFactor",
          "type": "uint256"
        }
      ],
      "name": "KFactorUpdated",
      "type": "event"
    },
    {
      "anonymous": false,
      "inputs": [
        {
          "indexed": true,
          "internalType": "uint256",
          "name": "gameId",
          "type": "uint256"
        },
        {
          "indexed": true,
          "internalType": "address",
          "name": "player",
          "type": "address"
        },
        {
          "indexed": false,
          "internalType": "uint8",
          "name": "moveIndex",
          "type": "uint8"
        }
      ],
      "name": "MovePlayed",
      "type": "event"
    },
    {
      "anonymous": false,
      "inputs": [
        {
          "indexed": true,
          "internalType": "address",
          "name": "previousOwner",
          "type": "address"
        },
        {
          "indexed": true,
          "internalType": "address",
          "name": "newOwner",
          "type": "address"
        }
      ],
      "name": "OwnershipTransferred",
      "type": "event"
    },
    {
      "anonymous": false,
      "inputs": [
        {
          "indexed": false,
          "internalType": "address",
          "name": "account",
          "type": "address"
        }
      ],
      "name": "Paused",
      "type": "event"
    },
    {
      "anonymous": false,
      "inputs": [
        {
          "indexed": false,
          "internalType": "uint256",
          "name": "newFeePercent",
          "type": "uint256"
        }
      ],
      "name": "PlatformFeeUpdated",
      "type": "event"
    },
    {
      "anonymous": false,
      "inputs": [
        {
          "indexed": true,
          "internalType": "address",
          "name": "player",
          "type": "address"
        },
        {
          "indexed": false,
          "internalType": "string",
          "name": "username",
          "type": "string"
        }
      ],
      "name": "PlayerRegistered",
      "type": "event"
    },
    {
      "anonymous": false,
      "inputs": [
        {
          "indexed": true,
          "internalType": "uint256",
          "name": "gameId",
          "type": "uint256"
        },
        {
          "indexed": true,
          "internalType": "address",
          "name": "winner",
          "type": "address"
        },
        {
          "indexed": false,
          "internalType": "uint256",
          "name": "amount",
          "type": "uint256"
        }
      ],
      "name": "RewardClaimed",
      "type": "event"
    },
    {
      "anonymous": false,
      "inputs": [
        {
          "indexed": false,
          "internalType": "uint256",
          "name": "newTimeout",
          "type": "uint256"
        }
      ],
      "name": "TimeoutUpdated",
      "type": "event"
    },
    {
      "anonymous": false,
      "inputs": [
        {
          "indexed": true,
          "internalType": "address",
          "name": "token",
          "type": "address"
        },
        {
          "indexed": false,
          "internalType": "bool",
          "name": "supported",
          "type": "bool"
        }
      ],
      "name": "TokenSupported",
      "type": "event"
    },
    {
      "anonymous": false,
      "inputs": [
        {
          "indexed": false,
          "internalType": "address",
          "name": "account",
          "type": "address"
        }
      ],
      "name": "Unpaused",
      "type": "event"
    },
    {
      "inputs": [],
      "name": "LEADERBOARD_SIZE",
      "outputs": [
        {
          "internalType": "uint256",
          "name": "",
          "type": "uint256"
        }
      ],
      "stateMutability": "view",
      "type": "function"
    },
    {
      "inputs": [
        {
          "internalType": "uint256",
          "name": "challengeId",
          "type": "uint256"
        },
        {
          "internalType": "uint8",
          "name": "moveIndex",
          "type": "uint8"
        }
      ],
      "name": "acceptChallenge",
      "outputs": [],
      "stateMutability": "payable",
      "type": "function"
    },
    {
      "inputs": [
        {
          "internalType": "address",
          "name": "admin",
          "type": "address"
        }
      ],
      "name": "addAdmin",
      "outputs": [],
      "stateMutability": "nonpayable",
      "type": "function"
    },
    {
      "inputs": [
        {
          "internalType": "address",
          "name": "",
          "type": "address"
        }
      ],
      "name": "admins",
      "outputs": [
        {
          "internalType": "bool",
          "name": "",
          "type": "bool"
        }
      ],
      "stateMutability": "view",
      "type": "function"
    },
    {
      "inputs": [],
      "name": "challengeCounter",
      "outputs": [
        {
          "internalType": "uint256",
          "name": "",
          "type": "uint256"
        }
      ],
      "stateMutability": "view",
      "type": "function"
    },
    {
      "inputs": [
        {
          "internalType": "uint256",
          "name": "",
          "type": "uint256"
        }
      ],
      "name": "challenges",
      "outputs": [
        {
          "internalType": "address",
          "name": "challenger",
          "type": "address"
        },
        {
          "internalType": "string",
          "name": "challengerUsername",
          "type": "string"
        },
        {
          "internalType": "address",
          "name": "challenged",
          "type": "address"
        },
        {
          "internalType": "string",
          "name": "challengedUsername",
          "type": "string"
        },
        {
          "internalType": "uint256",
          "name": "betAmount",
          "type": "uint256"
        },
        {
          "internalType": "address",
          "name": "tokenAddress",
          "type": "address"
        },
        {
          "internalType": "uint8",
          "name": "boardSize",
          "type": "uint8"
        },
        {
          "internalType": "uint256",
          "name": "timestamp",
          "type": "uint256"
        },
        {
          "internalType": "bool",
          "name": "accepted",
          "type": "bool"
        },
        {
          "internalType": "uint256",
          "name": "gameId",
          "type": "uint256"
        }
      ],
      "stateMutability": "view",
      "type": "function"
    },
    {
      "inputs": [
        {
          "internalType": "uint256",
          "name": "gameId",
          "type": "uint256"
        }
      ],
      "name": "claimReward",
      "outputs": [],
      "stateMutability": "nonpayable",
      "type": "function"
    },
    {
      "inputs": [
        {
          "internalType": "uint256",
          "name": "",
          "type": "uint256"
        }
      ],
      "name": "claimableRewards",
      "outputs": [
        {
          "internalType": "uint256",
          "name": "",
          "type": "uint256"
        }
      ],
      "stateMutability": "view",
      "type": "function"
    },
    {
      "inputs": [
        {
          "internalType": "address",
          "name": "challenged",
          "type": "address"
        },
        {
          "internalType": "uint256",
          "name": "betAmount",
          "type": "uint256"
        },
        {
          "internalType": "address",
          "name": "tokenAddress",
          "type": "address"
        },
        {
          "internalType": "uint8",
          "name": "boardSize",
          "type": "uint8"
        }
      ],
      "name": "createChallenge",
      "outputs": [],
      "stateMutability": "payable",
      "type": "function"
    },
    {
      "inputs": [
        {
          "internalType": "uint256",
          "name": "betAmount",
          "type": "uint256"
        },
        {
          "internalType": "uint8",
          "name": "moveIndex",
          "type": "uint8"
        },
        {
          "internalType": "address",
          "name": "tokenAddress",
          "type": "address"
        },
        {
          "internalType": "uint8",
          "name": "boardSize",
          "type": "uint8"
        }
      ],
      "name": "createGame",
      "outputs": [],
      "stateMutability": "payable",
      "type": "function"
    },
    {
      "inputs": [
        {
          "internalType": "uint256",
          "name": "gameId",
          "type": "uint256"
        }
      ],
      "name": "forfeitGame",
      "outputs": [],
      "stateMutability": "nonpayable",
      "type": "function"
    },
    {
      "inputs": [
        {
          "internalType": "uint256",
          "name": "",
          "type": "uint256"
        },
        {
          "internalType": "uint256",
          "name": "",
          "type": "uint256"
        }
      ],
      "name": "gameBoards",
      "outputs": [
        {
          "internalType": "uint8",
          "name": "",
          "type": "uint8"
        }
      ],
      "stateMutability": "view",
      "type": "function"
    },
    {
      "inputs": [
        {
          "internalType": "uint256",
          "name": "",
          "type": "uint256"
        }
      ],
      "name": "games",
      "outputs": [
        {
          "internalType": "address",
          "name": "playerOne",
          "type": "address"
        },
        {
          "internalType": "address",
          "name": "playerTwo",
          "type": "address"
        },
        {
          "internalType": "uint256",
          "name": "betAmount",
          "type": "uint256"
        },
        {
          "internalType": "address",
          "name": "tokenAddress",
          "type": "address"
        },
        {
          "internalType": "uint8",
          "name": "boardSize",
          "type": "uint8"
        },
        {
          "internalType": "bool",
          "name": "isPlayerOneTurn",
          "type": "bool"
        },
        {
          "internalType": "address",
          "name": "winner",
          "type": "address"
        },
        {
          "internalType": "uint64",
          "name": "lastMoveTimestamp",
          "type": "uint64"
        },
        {
          "internalType": "enum BlOcXTacToe.GameStatus",
          "name": "status",
          "type": "uint8"
        }
      ],
      "stateMutability": "view",
      "type": "function"
    },
    {
      "inputs": [
        {
          "internalType": "uint256",
          "name": "challengeId",
          "type": "uint256"
        }
      ],
      "name": "getChallenge",
      "outputs": [
        {
          "components": [
            {
              "internalType": "address",
              "name": "challenger",
              "type": "address"
            },
            {
              "internalType": "string",
              "name": "challengerUsername",
              "type": "string"
            },
            {
              "internalType": "address",
              "name": "challenged",
              "type": "address"
            },
            {
              "internalType": "string",
              "name": "challengedUsername",
              "type": "string"
            },
            {
              "internalType": "uint256",
              "name": "betAmount",
              "type": "uint256"
            },
            {
              "internalType": "address",
              "name": "tokenAddress",
              "type": "address"
            },
            {
              "internalType": "uint8",
              "name": "boardSize",
              "type": "uint8"
            },
            {
              "internalType": "uint256",
              "name": "timestamp",
              "type": "uint256"
            },
            {
              "internalType": "bool",
              "name": "accepted",
              "type": "bool"
            },
            {
              "internalType": "uint256",
              "name": "gameId",
              "type": "uint256"
            }
          ],
          "internalType": "struct BlOcXTacToe.Challenge",
          "name": "",
          "type": "tuple"
        }
      ],
      "stateMutability": "view",
      "type": "function"
    },
    {
      "inputs": [
        {
          "internalType": "uint256",
          "name": "gameId",
          "type": "uint256"
        }
      ],
      "name": "getGame",
      "outputs": [
        {
          "components": [
            {
              "internalType": "address",
              "name": "playerOne",
              "type": "address"
            },
            {
              "internalType": "address",
              "name": "playerTwo",
              "type": "address"
            },
            {
              "internalType": "uint256",
              "name": "betAmount",
              "type": "uint256"
            },
            {
              "internalType": "address",
              "name": "tokenAddress",
              "type": "address"
            },
            {
              "internalType": "uint8",
              "name": "boardSize",
              "type": "uint8"
            },
            {
              "internalType": "bool",
              "name": "isPlayerOneTurn",
              "type": "bool"
            },
            {
              "internalType": "address",
              "name": "winner",
              "type": "address"
            },
            {
              "internalType": "uint64",
              "name": "lastMoveTimestamp",
              "type": "uint64"
            },
            {
              "internalType": "enum BlOcXTacToe.GameStatus",
              "name": "status",
              "type": "uint8"
            }
          ],
          "internalType": "struct BlOcXTacToe.Game",
          "name": "",
          "type": "tuple"
        }
      ],
      "stateMutability": "view",
      "type": "function"
    },
    {
      "inputs": [],
      "name": "getLatestGameId",
      "outputs": [
        {
          "internalType": "uint256",
          "name": "",
          "type": "uint256"
        }
      ],
      "stateMutability": "view",
      "type": "function"
    },
    {
      "inputs": [
        {
          "internalType": "uint256",
          "name": "limit",
          "type": "uint256"
        }
      ],
      "name": "getLeaderboard",
      "outputs": [
        {
          "components": [
            {
              "internalType": "address",
              "name": "player",
              "type": "address"
            },
            {
              "internalType": "string",
              "name": "username",
              "type": "string"
            },
            {
              "internalType": "uint256",
              "name": "rating",
              "type": "uint256"
            },
            {
              "internalType": "uint256",
              "name": "wins",
              "type": "uint256"
            }
          ],
          "internalType": "struct BlOcXTacToe.LeaderboardEntry[]",
          "name": "",
          "type": "tuple[]"
        }
      ],
      "stateMutability": "view",
      "type": "function"
    },
    {
      "inputs": [
        {
          "internalType": "address",
          "name": "player",
          "type": "address"
        }
      ],
      "name": "getPlayer",
      "outputs": [
        {
          "components": [
            {
              "internalType": "string",
              "name": "username",
              "type": "string"
            },
            {
              "internalType": "uint256",
              "name": "wins",
              "type": "uint256"
            },
            {
              "internalType": "uint256",
              "name": "losses",
              "type": "uint256"
            },
            {
              "internalType": "uint256",
              "name": "draws",
              "type": "uint256"
            },
            {
              "internalType": "uint256",
              "name": "totalGames",
              "type": "uint256"
            },
            {
              "internalType": "uint256",
              "name": "rating",
              "type": "uint256"
            },
            {
              "internalType": "bool",
              "name": "registered",
              "type": "bool"
            }
          ],
          "internalType": "struct BlOcXTacToe.Player",
          "name": "",
          "type": "tuple"
        }
      ],
      "stateMutability": "view",
      "type": "function"
    },
    {
      "inputs": [
        {
          "internalType": "string",
          "name": "username",
          "type": "string"
        }
      ],
      "name": "getPlayerByUsername",
      "outputs": [
        {
          "internalType": "address",
          "name": "",
          "type": "address"
        },
        {
          "components": [
            {
              "internalType": "string",
              "name": "username",
              "type": "string"
            },
            {
              "internalType": "uint256",
              "name": "wins",
              "type": "uint256"
            },
            {
              "internalType": "uint256",
              "name": "losses",
              "type": "uint256"
            },
            {
              "internalType": "uint256",
              "name": "draws",
              "type": "uint256"
            },
            {
              "internalType": "uint256",
              "name": "totalGames",
              "type": "uint256"
            },
            {
              "internalType": "uint256",
              "name": "rating",
              "type": "uint256"
            },
            {
              "internalType": "bool",
              "name": "registered",
              "type": "bool"
            }
          ],
          "internalType": "struct BlOcXTacToe.Player",
          "name": "",
          "type": "tuple"
        }
      ],
      "stateMutability": "view",
      "type": "function"
    },
    {
      "inputs": [
        {
          "internalType": "address",
          "name": "player",
          "type": "address"
        }
      ],
      "name": "getPlayerChallenges",
      "outputs": [
        {
          "internalType": "uint256[]",
          "name": "",
          "type": "uint256[]"
        }
      ],
      "stateMutability": "view",
      "type": "function"
    },
    {
      "inputs": [],
      "name": "getSupportedTokens",
      "outputs": [
        {
          "internalType": "address[]",
          "name": "",
          "type": "address[]"
        }
      ],
      "stateMutability": "view",
      "type": "function"
    },
    {
      "inputs": [
        {
          "internalType": "uint256",
          "name": "gameId",
          "type": "uint256"
        }
      ],
      "name": "getTimeRemaining",
      "outputs": [
        {
          "internalType": "uint256",
          "name": "",
          "type": "uint256"
        }
      ],
      "stateMutability": "view",
      "type": "function"
    },
    {
      "inputs": [
        {
          "internalType": "address",
          "name": "token",
          "type": "address"
        }
      ],
      "name": "getTokenName",
      "outputs": [
        {
          "internalType": "string",
          "name": "",
          "type": "string"
        }
      ],
      "stateMutability": "view",
      "type": "function"
    },
    {
      "inputs": [
        {
          "internalType": "address",
          "name": "token",
          "type": "address"
        }
      ],
      "name": "isTokenSupported",
      "outputs": [
        {
          "internalType": "bool",
          "name": "",
          "type": "bool"
        }
      ],
      "stateMutability": "view",
      "type": "function"
    },
    {
      "inputs": [
        {
          "internalType": "uint256",
          "name": "gameId",
          "type": "uint256"
        },
        {
          "internalType": "uint8",
          "name": "moveIndex",
          "type": "uint8"
        }
      ],
      "name": "joinGame",
      "outputs": [],
      "stateMutability": "payable",
      "type": "function"
    },
    {
      "inputs": [],
      "name": "kFactor",
      "outputs": [
        {
          "internalType": "uint256",
          "name": "",
          "type": "uint256"
        }
      ],
      "stateMutability": "view",
      "type": "function"
    },
    {
      "inputs": [
        {
          "internalType": "uint256",
          "name": "",
          "type": "uint256"
        }
      ],
      "name": "leaderboard",
      "outputs": [
        {
          "internalType": "address",
          "name": "player",
          "type": "address"
        },
        {
          "internalType": "string",
          "name": "username",
          "type": "string"
        },
        {
          "internalType": "uint256",
          "name": "rating",
          "type": "uint256"
        },
        {
          "internalType": "uint256",
          "name": "wins",
          "type": "uint256"
        }
      ],
      "stateMutability": "view",
      "type": "function"
    },
    {
      "inputs": [],
      "name": "moveTimeout",
      "outputs": [
        {
          "internalType": "uint256",
          "name": "",
          "type": "uint256"
        }
      ],
      "stateMutability": "view",
      "type": "function"
    },
    {
      "inputs": [],
      "name": "owner",
      "outputs": [
        {
          "internalType": "address",
          "name": "",
          "type": "address"
        }
      ],
      "stateMutability": "view",
      "type": "function"
    },
    {
      "inputs": [],
      "name": "pause",
      "outputs": [],
      "stateMutability": "nonpayable",
      "type": "function"
    },
    {
      "inputs": [],
      "name": "paused",
      "outputs": [
        {
          "internalType": "bool",
          "name": "",
          "type": "bool"
        }
      ],
      "stateMutability": "view",
      "type": "function"
    },
    {
      "inputs": [],
      "name": "platformFeePercent",
      "outputs": [
        {
          "internalType": "uint256",
          "name": "",
          "type": "uint256"
        }
      ],
      "stateMutability": "view",
      "type": "function"
    },
    {
      "inputs": [],
      "name": "platformFeeRecipient",
      "outputs": [
        {
          "internalType": "address",
          "name": "",
          "type": "address"
        }
      ],
      "stateMutability": "view",
      "type": "function"
    },
    {
      "inputs": [
        {
          "internalType": "uint256",
          "name": "gameId",
          "type": "uint256"
        },
        {
          "internalType": "uint8",
          "name": "moveIndex",
          "type": "uint8"
        }
      ],
      "name": "play",
      "outputs": [],
      "stateMutability": "nonpayable",
      "type": "function"
    },
    {
      "inputs": [
        {
          "internalType": "address",
          "name": "",
          "type": "address"
        },
        {
          "internalType": "uint256",
          "name": "",
          "type": "uint256"
        }
      ],
      "name": "playerChallenges",
      "outputs": [
        {
          "internalType": "uint256",
          "name": "",
          "type": "uint256"
        }
      ],
      "stateMutability": "view",
      "type": "function"
    },
    {
      "inputs": [
        {
          "internalType": "address",
          "name": "",
          "type": "address"
        }
      ],
      "name": "players",
      "outputs": [
        {
          "internalType": "string",
          "name": "username",
          "type": "string"
        },
        {
          "internalType": "uint256",
          "name": "wins",
          "type": "uint256"
        },
        {
          "internalType": "uint256",
          "name": "losses",
          "type": "uint256"
        },
        {
          "internalType": "uint256",
          "name": "draws",
          "type": "uint256"
        },
        {
          "internalType": "uint256",
          "name": "totalGames",
          "type": "uint256"
        },
        {
          "internalType": "uint256",
          "name": "rating",
          "type": "uint256"
        },
        {
          "internalType": "bool",
          "name": "registered",
          "type": "bool"
        }
      ],
      "stateMutability": "view",
      "type": "function"
    },
    {
      "inputs": [
        {
          "internalType": "string",
          "name": "username",
          "type": "string"
        }
      ],
      "name": "registerPlayer",
      "outputs": [],
      "stateMutability": "nonpayable",
      "type": "function"
    },
    {
      "inputs": [
        {
          "internalType": "address",
          "name": "admin",
          "type": "address"
        }
      ],
      "name": "removeAdmin",
      "outputs": [],
      "stateMutability": "nonpayable",
      "type": "function"
    },
    {
      "inputs": [],
      "name": "renounceOwnership",
      "outputs": [],
      "stateMutability": "nonpayable",
      "type": "function"
    },
    {
      "inputs": [
        {
          "internalType": "uint256",
          "name": "",
          "type": "uint256"
        }
      ],
      "name": "rewardClaimed",
      "outputs": [
        {
          "internalType": "bool",
          "name": "",
          "type": "bool"
        }
      ],
      "stateMutability": "view",
      "type": "function"
    },
    {
      "inputs": [
        {
          "internalType": "uint256",
          "name": "newKFactor",
          "type": "uint256"
        }
      ],
      "name": "setKFactor",
      "outputs": [],
      "stateMutability": "nonpayable",
      "type": "function"
    },
    {
      "inputs": [
        {
          "internalType": "uint256",
          "name": "newTimeout",
          "type": "uint256"
        }
      ],
      "name": "setMoveTimeout",
      "outputs": [],
      "stateMutability": "nonpayable",
      "type": "function"
    },
    {
      "inputs": [
        {
          "internalType": "uint256",
          "name": "newFeePercent",
          "type": "uint256"
        }
      ],
      "name": "setPlatformFee",
      "outputs": [],
      "stateMutability": "nonpayable",
      "type": "function"
    },
    {
      "inputs": [
        {
          "internalType": "address",
          "name": "recipient",
          "type": "address"
        }
      ],
      "name": "setPlatformFeeRecipient",
      "outputs": [],
      "stateMutability": "nonpayable",
      "type": "function"
    },
    {
      "inputs": [
        {
          "internalType": "address",
          "name": "token",
          "type": "address"
        },
        {
          "internalType": "bool",
          "name": "supported",
          "type": "bool"
        },
        {
          "internalType": "string",
          "name": "tokenName",
          "type": "string"
        }
      ],
      "name": "setSupportedToken",
      "outputs": [],
      "stateMutability": "nonpayable",
      "type": "function"
    },
    {
      "inputs": [
        {
          "internalType": "address",
          "name": "",
          "type": "address"
        }
      ],
      "name": "supportedTokens",
      "outputs": [
        {
          "internalType": "bool",
          "name": "",
          "type": "bool"
        }
      ],
      "stateMutability": "view",
      "type": "function"
    },
    {
      "inputs": [
        {
          "internalType": "uint256",
          "name": "",
          "type": "uint256"
        }
      ],
      "name": "supportedTokensList",
      "outputs": [
        {
          "internalType": "address",
          "name": "",
          "type": "address"
        }
      ],
      "stateMutability": "view",
      "type": "function"
    },
    {
      "inputs": [
        {
          "internalType": "address",
          "name": "",
          "type": "address"
        }
      ],
      "name": "tokenNames",
      "outputs": [
        {
          "internalType": "string",
          "name": "",
          "type": "string"
        }
      ],
      "stateMutability": "view",
      "type": "function"
    },
    {
      "inputs": [
        {
          "internalType": "address",
          "name": "newOwner",
          "type": "address"
        }
      ],
      "name": "transferOwnership",
      "outputs": [],
      "stateMutability": "nonpayable",
      "type": "function"
    },
    {
      "inputs": [],
      "name": "unpause",
      "outputs": [],
      "stateMutability": "nonpayable",
      "type": "function"
    },
    {
      "inputs": [
        {
          "internalType": "string",
          "name": "",
          "type": "string"
        }
      ],
      "name": "usernameToAddress",
      "outputs": [
        {
          "internalType": "address",
          "name": "",
          "type": "address"
        }
      ],
      "stateMutability": "view",
      "type": "function"
    }
  ],
  "bytecode": "0x60806040523480156200001157600080fd5b50600160005533806200003e57604051631e4fbdf760e01b81526000600482015260240160405180910390fd5b62000049816200014e565b506201518060025560006003818155600480546001600160a01b0319163390811790915560646005558252600660209081526040808420805460ff1990811660019081179092557f6d5257204ebe7d88fd91ae87941cb2dd9d8062b64ae5a2bd2d28ec40b9fbf6df8054909116909117905580518082019091529182526208aa8960eb1b8282015291805260089091527f5eff886ea0ce6ca488a3d6e336d6c0f75f46d19b42c06ce5ee98e42c96d256c7906200010790826200024d565b50600980546001810182556000919091527f6e1540171b6c0c960b71a7020d9f60077f6af931a8bbf590da0223dacf75c7af0180546001600160a01b031916905562000319565b600180546001600160a01b03838116610100818102610100600160a81b031985161790945560405193909204169182907f8be0079c531659141344cd1fd0a4f28419497f9722a3daafe3b4186f6b6457e090600090a35050565b634e487b7160e01b600052604160045260246000fd5b600181811c90821680620001d357607f821691505b602082108103620001f457634e487b7160e01b600052602260045260246000fd5b50919050565b601f8211156200024857600081815260208120601f850160051c81016020861015620002235750805b601f850160051c820191505b8181101562000244578281556001016200022f565b5050505b505050565b81516001600160401b03811115620002695762000269620001a8565b62000281816200027a8454620001be565b84620001fa565b602080601f831160018114620002b95760008415620002a05750858301515b600019600386901b1c1916600185901b17855562000244565b600085815260208120601f198616915b82811015620002ea57888601518255948401946001909101908401620002c9565b5085821015620003095787850151600019600388901b60f8161c191681555b5050505050600190811b01905550565b6156c280620003296000396000f3fe6080604052600436106102e45760003560e01c80638a062ab711610190578063bf368399116100dc578063ea0dc91211610095578063f2fde38b1161006f578063f2fde38b14610a1c578063f7fed02c14610a3c578063f825f14314610a52578063fdb894ac14610a9357600080fd5b8063ea0dc912146109af578063eb13554f146109cf578063eb884d50146109ef57600080fd5b8063bf368399146108f1578063ca2ad0aa14610921578063ca6649c514610934578063d3c7c2c714610947578063dde2307a14610969578063e2eb41ff1461097c57600080fd5b806398be22f711610149578063a8fc75e111610123578063a8fc75e114610863578063ae169a5014610883578063b307f52a146108a3578063b3446f85146108d157600080fd5b806398be22f7146107e9578063a2f77bcc14610809578063a34b46fe1461083657600080fd5b80638a062ab71461070d5780638c639a851461072d5780638cd42991146107435780638da5cb5b146107635780638f1d3776146107865780639835fc7e146107bc57600080fd5b8063429b62e51161024f57806368825a391161020857806370480275116101e2578063704802751461068a578063715018a6146106aa57806375151b63146106bf5780638456cb59146106f857600080fd5b806368825a39146105fd57806368c4ac261461062d5780636f0fccab1461065d57600080fd5b8063429b62e51461050b5780634f085f421461054b5780635c12cd4b146105605780635c975abb1461058d5780635cd7692e146105a557806363c91877146105c557600080fd5b8063181c5e15116102a1578063181c5e15146104315780631871e2431461047e5780631bdd4b741461049e578063342e4cbf146104cb57806339053ca6146104e15780633f4ba83a146104f657600080fd5b806303380d3d146102e95780630d7905fa1461031c5780630d836cd91461033e578063117a5b901461035157806312e8e2c3146103f15780631785f53c14610411575b600080fd5b3480156102f557600080fd5b506103096103043660046149d0565b610aa9565b6040519081526020015b60405180910390f35b34801561032857600080fd5b5061033c6103373660046149fa565b610ada565b005b61033c61034c366004614a24565b610ba3565b34801561035d57600080fd5b506103dc61036c3660046149fa565b601160205260009081526040902080546001820154600283015460038401546004909401546001600160a01b039384169492841693919282811692600160a01b80830460ff90811694600160a81b909404811693928316929182046001600160401b031691600160e01b90041689565b60405161031399989796959493929190614aa9565b3480156103fd57600080fd5b5061033c61040c3660046149fa565b61110c565b34801561041d57600080fd5b5061033c61042c366004614b15565b6111c4565b34801561043d57600080fd5b5061046c61044c366004614b37565b601060209081526000928352604080842090915290825290205460ff1681565b60405160ff9091168152602001610313565b34801561048a57600080fd5b5061033c610499366004614b15565b611215565b3480156104aa57600080fd5b506104be6104b93660046149fa565b6112be565b6040516103139190614b9f565b3480156104d757600080fd5b5061030960055481565b3480156104ed57600080fd5b50601254610309565b34801561050257600080fd5b5061033c6114f3565b34801561051757600080fd5b5061053b610526366004614b15565b60066020526000908152604090205460ff1681565b6040519015158152602001610313565b34801561055757600080fd5b50610309606481565b34801561056c57600080fd5b5061058061057b366004614b15565b611505565b6040516103139190614cd8565b34801561059957600080fd5b5060015460ff1661053b565b3480156105b157600080fd5b5061033c6105c0366004614ceb565b611643565b3480156105d157600080fd5b506105e56105e03660046149fa565b6118da565b6040516001600160a01b039091168152602001610313565b34801561060957600080fd5b5061053b6106183660046149fa565b60146020526000908152604090205460ff1681565b34801561063957600080fd5b5061053b610648366004614b15565b60076020526000908152604090205460ff1681565b34801561066957600080fd5b5061067d610678366004614b15565b611904565b6040516103139190614d17565b34801561069657600080fd5b5061033c6106a5366004614b15565b6119b0565b3480156106b657600080fd5b5061033c611a04565b3480156106cb57600080fd5b5061053b6106da366004614b15565b6001600160a01b031660009081526007602052604090205460ff1690565b34801561070457600080fd5b5061033c611a16565b34801561071957600080fd5b5061033c6107283660046149fa565b611a26565b34801561073957600080fd5b5061030960035481565b34801561074f57600080fd5b5061030961075e3660046149fa565b611ae7565b34801561076f57600080fd5b5060015461010090046001600160a01b03166105e5565b34801561079257600080fd5b506107a66107a13660046149fa565b611bb7565b6040516103139a99989796959493929190614d2a565b3480156107c857600080fd5b506103096107d73660046149fa565b60136020526000908152604090205481565b3480156107f557600080fd5b5061033c6108043660046149fa565b611d43565b34801561081557600080fd5b506108296108243660046149fa565b611f7c565b6040516103139190614da9565b34801561084257600080fd5b506108566108513660046149fa565b6120be565b6040516103139190614e5c565b34801561086f57600080fd5b5061067d61087e366004614b15565b612288565b34801561088f57600080fd5b5061033c61089e3660046149fa565b612322565b3480156108af57600080fd5b506108c36108be366004614f33565b612471565b604051610313929190614f74565b3480156108dd57600080fd5b5061033c6108ec366004614f33565b6125e3565b3480156108fd57600080fd5b5061091161090c3660046149fa565b6127ed565b6040516103139493929190614fa0565b61033c61092f366004614ceb565b6128bb565b61033c610942366004614ceb565b612c3e565b34801561095357600080fd5b5061095c612f8c565b6040516103139190614fd7565b61033c610977366004615024565b612fee565b34801561098857600080fd5b5061099c610997366004614b15565b61332a565b6040516103139796959493929190615058565b3480156109bb57600080fd5b5061033c6109ca3660046150ac565b6133f2565b3480156109db57600080fd5b506004546105e5906001600160a01b031681565b3480156109fb57600080fd5b50610a0f610a0a366004614b15565b6136c7565b604051610313919061510e565b348015610a2857600080fd5b5061033c610a37366004614b15565b613732565b348015610a4857600080fd5b50610309600e5481565b348015610a5e57600080fd5b506105e5610a6d36600461515c565b8051602081830181018051600b825292820191909301209152546001600160a01b031681565b348015610a9f57600080fd5b5061030960025481565b600f6020528160005260406000208181548110610ac557600080fd5b90600052602060002001600091509150505481565b3360009081526006602052604090205460ff16158015610b1c575060015461010090046001600160a01b03166001600160a01b0316336001600160a01b031614155b15610b3a57604051637bfa4b9f60e01b815260040160405180910390fd5b801580610b49575062093a8081115b15610b6757604051631ffb86f160e21b815260040160405180910390fd5b60028190556040518181527f1a1cd30e223035d872019b55a16a88e0fad18aac07397d463628bf771cc10b94906020015b60405180910390a150565b610bab613772565b610bb361379c565b336000908152600a602052604090206006015460ff16610be65760405163424744c360e01b815260040160405180910390fd5b336001600160a01b03851603610c0f5760405163706cd38160e01b815260040160405180910390fd5b6001600160a01b038416610c365760405163e481c26960e01b815260040160405180910390fd5b6001600160a01b0384166000908152600a602052604090206006015460ff16610c725760405163424744c360e01b815260040160405180910390fd5b82600003610c935760405163aa82224960e01b815260040160405180910390fd5b6001600160a01b03821660009081526007602052604090205460ff16610ccc57604051630c55eb0360e21b815260040160405180910390fd5b8060ff16600314158015610ce457508060ff16600514155b8015610cf457508060ff16600714155b15610d1257604051630ffd11ad60e01b815260040160405180910390fd5b6001600160a01b038216610d4557823414610d405760405163094b6dbb60e41b815260040160405180910390fd5b610dd9565b3415610d645760405163094b6dbb60e41b815260040160405180910390fd5b6040516323b872dd60e01b81526001600160a01b038316906323b872dd90610d949033903090889060040161520c565b6020604051808303816000875af1158015610db3573d6000803e3d6000fd5b505050506040513d601f19601f82011682018060405250810190610dd79190615230565b505b600e805460009182610dea83615263565b909155506040805161014081018252338082526000908152600a60209081529290208054939450909291830191610e209061527c565b80601f0160208091040260200160405190810160405280929190818152602001828054610e4c9061527c565b8015610e995780601f10610e6e57610100808354040283529160200191610e99565b820191906000526020600020905b815481529060010190602001808311610e7c57829003601f168201915b50505050508152602001866001600160a01b03168152602001600a6000886001600160a01b03166001600160a01b031681526020019081526020016000206000018054610ee59061527c565b80601f0160208091040260200160405190810160405280929190818152602001828054610f119061527c565b8015610f5e5780601f10610f3357610100808354040283529160200191610f5e565b820191906000526020600020905b815481529060010190602001808311610f4157829003601f168201915b505050918352505060208082018790526001600160a01b0386811660408085019190915260ff87166060850152426080850152600060a0850181905260c0909401849052858452600d8352909220835181546001600160a01b03191693169290921782558201516001820190610fd4908261530b565b5060408201516002820180546001600160a01b0319166001600160a01b039092169190911790556060820151600382019061100f908261530b565b506080820151600482015560a082015160058201805460c085015160ff16600160a01b026001600160a81b03199091166001600160a01b039384161717905560e0830151600683015561010083015160078301805491151560ff1990921691909117905561012090920151600890910155336000818152600f6020908152604080832080546001818101835591855283852001879055948a16808452818420805496870181558452919092209093018490555183907fd2f7931a802085b3d0234d4c320ce7ee0041da96678ce2bf5c93e8d3d7e65f52906110f39089815260200190565b60405180910390a4506111066001600055565b50505050565b3360009081526006602052604090205460ff1615801561114e575060015461010090046001600160a01b03166001600160a01b0316336001600160a01b031614155b1561116c57604051637bfa4b9f60e01b815260040160405180910390fd5b6103e881111561118f576040516358d620b360e01b815260040160405180910390fd5b60038190556040518181527f45610d581145924dd7090a5017e5f2b1d6f42213bb2e95707ff86846bbfcb1ca90602001610b98565b6111cc6137c0565b6001600160a01b038116600081815260066020526040808220805460ff19169055517fa3b62bc36326052d97ea62d63c3d60308ed4c3ea8ac079dd8499f1e9c4f80c0f9190a250565b3360009081526006602052604090205460ff16158015611257575060015461010090046001600160a01b03166001600160a01b0316336001600160a01b031614155b1561127557604051637bfa4b9f60e01b815260040160405180910390fd5b6001600160a01b03811661129c5760405163e481c26960e01b815260040160405180910390fd5b600480546001600160a01b0319166001600160a01b0392909216919091179055565b61133460405180610140016040528060006001600160a01b031681526020016060815260200160006001600160a01b03168152602001606081526020016000815260200160006001600160a01b03168152602001600060ff16815260200160008152602001600015158152602001600081525090565b6000828152600d60209081526040918290208251610140810190935280546001600160a01b0316835260018101805491928401916113719061527c565b80601f016020809104026020016040519081016040528092919081815260200182805461139d9061527c565b80156113ea5780601f106113bf576101008083540402835291602001916113ea565b820191906000526020600020905b8154815290600101906020018083116113cd57829003601f168201915b505050918352505060028201546001600160a01b0316602082015260038201805460409092019161141a9061527c565b80601f01602080910402602001604051908101604052809291908181526020018280546114469061527c565b80156114935780601f1061146857610100808354040283529160200191611493565b820191906000526020600020905b81548152906001019060200180831161147657829003601f168201915b50505091835250506004820154602082015260058201546001600160a01b038116604083015260ff600160a01b9091048116606083015260068301546080830152600783015416151560a082015260089091015460c09091015292915050565b6114fb6137c0565b6115036137f3565b565b6115476040518060e001604052806060815260200160008152602001600081526020016000815260200160008152602001600081526020016000151581525090565b6001600160a01b0382166000908152600a602052604090819020815160e081019092528054829082906115799061527c565b80601f01602080910402602001604051908101604052809291908181526020018280546115a59061527c565b80156115f25780601f106115c7576101008083540402835291602001916115f2565b820191906000526020600020905b8154815290600101906020018083116115d557829003601f168201915b505050918352505060018201546020820152600282015460408201526003820154606082015260048201546080820152600582015460a082015260069091015460ff16151560c09091015292915050565b61164b613772565b81601254811061166e57604051631bf4348160e31b815260040160405180910390fd5b8260008082815260116020526040902060040154600160e01b900460ff16600281111561169d5761169d614a71565b146116bb57604051634065aaf160e11b815260040160405180910390fd5b6116c361379c565b600084815260116020526040902060018101546001600160a01b03166116fc57604051634065aaf160e11b815260040160405180910390fd5b600381015460009061171890600160a01b900460ff16806153c4565b9050808560ff161061173d576040516321e08b4d60e21b815260040160405180910390fd5b600086815260106020908152604080832060ff808a168552925290912054161561177a576040516377b19ff960e01b815260040160405180910390fd5b6003820154600160a81b900460ff16801561179f575081546001600160a01b03163314155b156117bd5760405163c6e1dd1d60e01b815260040160405180910390fd5b6003820154600160a81b900460ff161580156117e6575060018201546001600160a01b03163314155b156118045760405163c6e1dd1d60e01b815260040160405180910390fd5b6003820154600090600160a81b900460ff16611821576002611824565b60015b600088815260106020908152604080832060ff8b811680865291845293829020805460ff191686861617905560038801805460ff60a81b198116600160a81b9182900490961615029490941790935560048701805467ffffffffffffffff60a01b1916600160a01b426001600160401b031602179055519182529192503391899160008051602061566d833981519152910160405180910390a36118c787613845565b50505050506118d66001600055565b5050565b600981815481106118ea57600080fd5b6000918252602090912001546001600160a01b0316905081565b6001600160a01b038116600090815260086020526040902080546060919061192b9061527c565b80601f01602080910402602001604051908101604052809291908181526020018280546119579061527c565b80156119a45780601f10611979576101008083540402835291602001916119a4565b820191906000526020600020905b81548152906001019060200180831161198757829003601f168201915b50505050509050919050565b6119b86137c0565b6001600160a01b038116600081815260066020526040808220805460ff19166001179055517f44d6d25963f097ad14f29f06854a01f575648a1ef82f30e562ccd3889717e3399190a250565b611a0c6137c0565b6115036000613d8c565b611a1e6137c0565b611503613de6565b3360009081526006602052604090205460ff16158015611a68575060015461010090046001600160a01b03166001600160a01b0316336001600160a01b031614155b15611a8657604051637bfa4b9f60e01b815260040160405180910390fd5b801580611a9457506103e881115b15611ab257604051632f62f0d960e21b815260040160405180910390fd5b60058190556040518181527f77f9f9fbe07bd3b672c0fcc2c8f1a3ff8d2e430df64a7bb09e3e1abff6b41d5290602001610b98565b6000816012548110611b0c57604051631bf4348160e31b815260040160405180910390fd5b60008381526011602052604090206004810154600160a01b90046001600160401b03161580611b5b575060006004820154600160e01b900460ff166002811115611b5857611b58614a71565b14155b15611b6a576000925050611bb1565b6002546004820154600091611b8e91600160a01b90046001600160401b03166153e1565b9050804210611ba257600093505050611bb1565b611bac42826153f4565b935050505b50919050565b600d60205260009081526040902080546001820180546001600160a01b039092169291611be39061527c565b80601f0160208091040260200160405190810160405280929190818152602001828054611c0f9061527c565b8015611c5c5780601f10611c3157610100808354040283529160200191611c5c565b820191906000526020600020905b815481529060010190602001808311611c3f57829003601f168201915b505050600284015460038501805494956001600160a01b03909216949193509150611c869061527c565b80601f0160208091040260200160405190810160405280929190818152602001828054611cb29061527c565b8015611cff5780601f10611cd457610100808354040283529160200191611cff565b820191906000526020600020905b815481529060010190602001808311611ce257829003601f168201915b5050506004840154600585015460068601546007870154600890970154959692956001600160a01b038316955060ff600160a01b909304831694509092909116908a565b611d4b613772565b806012548110611d6e57604051631bf4348160e31b815260040160405180910390fd5b8160008082815260116020526040902060040154600160e01b900460ff166002811115611d9d57611d9d614a71565b14611dbb57604051634065aaf160e11b815260040160405180910390fd5b600083815260116020526040902060018101546001600160a01b0316611df457604051634065aaf160e11b815260040160405180910390fd5b6002546004820154611e169190600160a01b90046001600160401b03166153e1565b4211611e355760405163055e18ff60e31b815260040160405180910390fd5b6003810154600090600160a81b900460ff16611e5b5781546001600160a01b0316611e6a565b60018201546001600160a01b03165b6004830180546001600160a01b038316600168ff000000000000000160a01b031990911617600160e11b179055600280840154919250600091611eac916153c4565b9050600061271060035483611ec191906153c4565b611ecb9190615407565b90506000611ed982846153f4565b600089815260136020526040902081905590508115611f12576004546003860154611f12916001600160a01b0390811691859116613e21565b84546001860154611f32916001600160a01b039081169116866000613f38565b6040516001600160a01b0385169089907fa123e0ae628b772d6c016e95237ce73fbf7959306ac89b11be3543188f2885f690600090a350505050505050611f796001600055565b50565b611fc96040805161012081018252600080825260208201819052918101829052606081018290526080810182905260a0810182905260c0810182905260e081018290529061010082015290565b816012548110611fec57604051631bf4348160e31b815260040160405180910390fd5b60008381526011602090815260409182902082516101208101845281546001600160a01b03908116825260018301548116938201939093526002808301549482019490945260038201548084166060830152600160a01b80820460ff9081166080850152600160a81b9092048216151560a0840152600484015494851660c084015284046001600160401b031660e083015290939192610100850192600160e01b909104909116908111156120a3576120a3614a71565b60028111156120b4576120b4614a71565b9052509392505050565b6060600082600c80549050106120d457826120d8565b600c545b90506000816001600160401b038111156120f4576120f4615146565b60405190808252806020026020018201604052801561215957816020015b612146604051806080016040528060006001600160a01b031681526020016060815260200160008152602001600081525090565b8152602001906001900390816121125790505b50905060005b8281101561228057600c818154811061217a5761217a615429565b6000918252602091829020604080516080810190915260049092020180546001600160a01b0316825260018101805492939192918401916121ba9061527c565b80601f01602080910402602001604051908101604052809291908181526020018280546121e69061527c565b80156122335780601f1061220857610100808354040283529160200191612233565b820191906000526020600020905b81548152906001019060200180831161221657829003601f168201915b505050505081526020016002820154815260200160038201548152505082828151811061226257612262615429565b6020026020010181905250808061227890615263565b91505061215f565b509392505050565b600860205260009081526040902080546122a19061527c565b80601f01602080910402602001604051908101604052809291908181526020018280546122cd9061527c565b801561231a5780601f106122ef5761010080835404028352916020019161231a565b820191906000526020600020905b8154815290600101906020018083116122fd57829003601f168201915b505050505081565b61232a613772565b80601254811061234d57604051631bf4348160e31b815260040160405180910390fd5b60008281526014602052604090205460ff161561237d576040516317968e5360e31b815260040160405180910390fd5b60008281526013602052604081205490036123ab5760405163374c934360e11b815260040160405180910390fd5b600082815260116020526040902060048101546001600160a01b031633146123e6576040516330c6392160e11b815260040160405180910390fd5b6000838152601360208181526040808420805460148452918520805460ff1916600117905592909152919055600382015461242d90339083906001600160a01b0316613e21565b604051818152339085907f24b5efa61dd1cfc659205a97fb8ed868f3cb8c81922bab2b96423e5de1de2cb79060200160405180910390a3505050611f796001600055565b60006124b56040518060e001604052806060815260200160008152602001600081526020016000815260200160008152602001600081526020016000151581525090565b6000600b85856040516124c992919061543f565b9081526040805160209281900383018120546001600160a01b03166000818152600a9094529282902060e082019092528154929350839282908290829061250f9061527c565b80601f016020809104026020016040519081016040528092919081815260200182805461253b9061527c565b80156125885780601f1061255d57610100808354040283529160200191612588565b820191906000526020600020905b81548152906001019060200180831161256b57829003601f168201915b505050918352505060018201546020820152600282015460408201526003820154606082015260048201546080820152600582015460a082015260069091015460ff16151560c09091015291945090925050505b9250929050565b8015806125f05750602081115b1561260e5760405163fd684c3b60e01b815260040160405180910390fd5b60006001600160a01b0316600b838360405161262b92919061543f565b908152604051908190036020019020546001600160a01b03161461266257604051636bc324ad60e01b815260040160405180910390fd5b336000908152600a602052604090206006015460ff16156126965760405163fd684c3b60e01b815260040160405180910390fd5b6040518060e0016040528083838080601f0160208091040260200160405190810160405280939291908181526020018383808284376000920182905250938552505050602080830182905260408084018390526060840183905260808401839052606460a0850152600160c090940193909352338252600a9052208151819061271f908261530b565b50602082015160018201556040808301516002830155606083015160038301556080830151600483015560a0830151600583015560c0909201516006909101805460ff1916911515919091179055513390600b90612780908590859061543f565b90815260405190819003602001812080546001600160a01b03939093166001600160a01b03199093169290921790915533907fe04d23b73ae3d3b27074da9719b5a4cd521395aaf86bfe7e374933ecb567731a906127e1908590859061544f565b60405180910390a25050565b600c81815481106127fd57600080fd5b6000918252602090912060049091020180546001820180546001600160a01b0390921693509061282c9061527c565b80601f01602080910402602001604051908101604052809291908181526020018280546128589061527c565b80156128a55780601f1061287a576101008083540402835291602001916128a5565b820191906000526020600020905b81548152906001019060200180831161288857829003601f168201915b5050505050908060020154908060030154905084565b6128c3613772565b6128cb61379c565b336000908152600a602052604090206006015460ff166128fe5760405163424744c360e01b815260040160405180910390fd5b6000828152600d6020526040902060028101546001600160a01b03163314612938576040516282b42960e81b815260040160405180910390fd5b600781015460ff161561295e576040516333cf58f960e01b815260040160405180910390fd5b600581015460009061297a90600160a01b900460ff16806153c4565b9050808360ff161061299f576040516321e08b4d60e21b815260040160405180910390fd5b60058201546001600160a01b03166129da57816004015434146129d55760405163094b6dbb60e41b815260040160405180910390fd5b612a76565b34156129f95760405163094b6dbb60e41b815260040160405180910390fd5b60058201546004808401546040516323b872dd60e01b81526001600160a01b03909316926323b872dd92612a3192339230920161520c565b6020604051808303816000875af1158015612a50573d6000803e3d6000fd5b505050506040513d601f19601f82011682018060405250810190612a749190615230565b505b60078201805460ff191660011790556012805460009182612a9683615263565b909155506000818152601160209081526040808320875481546001600160a01b039182166001600160a01b031991821617835560018084018054339084161790556004808c018054600287015560058d0180546003880180549188169682168717815582546001600160a81b0319909216909617600160a01b9182900460ff90811683029190911760ff60a81b1916909655928701805468ffffffffffffffffff60a01b1916426001600160401b03169094029390931790925560108852868920938e16808a5293885297869020805460ff191690921790915560088b018890558a54965490548551918252958101919091529381168484015291519495509392169184917f05c659c69fbacea8afd8439602b5882ad74a3ecbc422a4f15d54c79db70e1ce8919081900360600190a3835460405160ff871681526001600160a01b0390911690839060008051602061566d8339815191529060200160405180910390a3604051829087907f0e3e71918165b205241b092b9121bb9b847e17f66b161239b21639fa61237ed990600090a3612c3082613845565b505050506118d66001600055565b612c46613772565b816012548110612c6957604051631bf4348160e31b815260040160405180910390fd5b8260008082815260116020526040902060040154600160e01b900460ff166002811115612c9857612c98614a71565b14612cb657604051634065aaf160e11b815260040160405180910390fd5b612cbe61379c565b336000908152600a602052604090206006015460ff16612cf15760405163424744c360e01b815260040160405180910390fd5b600084815260116020526040902060018101546001600160a01b031615612d2b57604051633633a83b60e21b815260040160405180910390fd5b80546001600160a01b03163303612d5557604051634898202560e11b815260040160405180910390fd5b6003810154600090612d7190600160a01b900460ff16806153c4565b9050808560ff1610612d96576040516321e08b4d60e21b815260040160405180910390fd5b600086815260106020908152604080832060ff808a1685529252909120541615612dd3576040516377b19ff960e01b815260040160405180910390fd5b60038201546001600160a01b0316612e0e5781600201543414612e095760405163094b6dbb60e41b815260040160405180910390fd5b612eab565b3415612e2d5760405163094b6dbb60e41b815260040160405180910390fd5b600382015460028301546040516323b872dd60e01b81526001600160a01b03909216916323b872dd91612e66913391309160040161520c565b6020604051808303816000875af1158015612e85573d6000803e3d6000fd5b505050506040513d601f19601f82011682018060405250810190612ea99190615230565b505b6001820180546001600160a01b03191633908117909155600087815260106020908152604080832060ff8a1680855290835292819020805460ff1916600217905560038601805460ff60a81b1916600160a81b1790556004860180546001600160401b034216600160a01b0267ffffffffffffffff60a01b199091161790555191825288917f9543429ff4d0366bda7e6f7907ab4d8c123ad250f9a8d6ecffabe880ab084e04910160405180910390a360405160ff861681523390879060008051602061566d8339815191529060200160405180910390a3612c3086613845565b60606009805480602002602001604051908101604052809291908181526020018280548015612fe457602002820191906000526020600020905b81546001600160a01b03168152600190910190602001808311612fc6575b5050505050905090565b612ff6613772565b612ffe61379c565b336000908152600a602052604090206006015460ff166130315760405163424744c360e01b815260040160405180910390fd5b836000036130525760405163aa82224960e01b815260040160405180910390fd5b8060ff1660031415801561306a57508060ff16600514155b801561307a57508060ff16600714155b1561309857604051630ffd11ad60e01b815260040160405180910390fd5b6001600160a01b03821660009081526007602052604090205460ff166130d157604051630c55eb0360e21b815260040160405180910390fd5b60006130e060ff8316806153c4565b9050808460ff1610613105576040516321e08b4d60e21b815260040160405180910390fd5b6001600160a01b038316613138578434146131335760405163094b6dbb60e41b815260040160405180910390fd5b6131cc565b34156131575760405163094b6dbb60e41b815260040160405180910390fd5b6040516323b872dd60e01b81526001600160a01b038416906323b872dd9061318790339030908a9060040161520c565b6020604051808303816000875af11580156131a6573d6000803e3d6000fd5b505050506040513d601f19601f820116820180604052508101906131ca9190615230565b505b60128054600091826131dd83615263565b9091555060008181526011602052604081208054336001600160a01b0319909116178155600281018990556003810180546001600160a01b0389166001600160a81b031990911617600160a01b60ff8916021760ff60a81b19169055600481018054939450909260ff60e01b1916600160e01b83021790555060048101805467ffffffffffffffff60a01b1916600160a01b426001600160401b031602179055600082815260106020908152604080832060ff8a1680855290835292819020805460ff1916600117905580518a8152918201929092526001600160a01b03871691810191909152339083907f05c659c69fbacea8afd8439602b5882ad74a3ecbc422a4f15d54c79db70e1ce89060600160405180910390a360405160ff871681523390839060008051602061566d8339815191529060200160405180910390a35050506111066001600055565b600a602052600090815260409020805481906133459061527c565b80601f01602080910402602001604051908101604052809291908181526020018280546133719061527c565b80156133be5780601f10613393576101008083540402835291602001916133be565b820191906000526020600020905b8154815290600101906020018083116133a157829003601f168201915b5050506001840154600285015460038601546004870154600588015460069098015496979396929550909350919060ff1687565b3360009081526006602052604090205460ff16158015613434575060015461010090046001600160a01b03166001600160a01b0316336001600160a01b031614155b1561345257604051637bfa4b9f60e01b815260040160405180910390fd5b6001600160a01b038416600090815260076020526040902080548415801560ff1983161790925560ff16906134ac5781156134ac576001600160a01b03851660009081526008602052604090206134aa83858361547e565b505b8380156134b7575080155b1561356c576009546000805b8281101561351357876001600160a01b0316600982815481106134e8576134e8615429565b6000918252602090912001546001600160a01b03160361350b5760019150613513565b6001016134c3565b508061356557600980546001810182556000919091527f6e1540171b6c0c960b71a7020d9f60077f6af931a8bbf590da0223dacf75c7af0180546001600160a01b0319166001600160a01b0389161790555b505061367b565b831580156135775750805b1561367b5760095460005b8181101561367857866001600160a01b0316600982815481106135a7576135a7615429565b6000918252602090912001546001600160a01b0316036136705760096135ce6001846153f4565b815481106135de576135de615429565b600091825260209091200154600980546001600160a01b03909216918390811061360a5761360a615429565b9060005260206000200160006101000a8154816001600160a01b0302191690836001600160a01b03160217905550600980548061364957613649615537565b600082815260209020810160001990810180546001600160a01b0319169055019055613678565b600101613582565b50505b846001600160a01b03167fd86c88b4a367d9b81a6e00c9d3f7d01657bffef358fa8968c91c045ae99f0d52856040516136b8911515815260200190565b60405180910390a25050505050565b6001600160a01b0381166000908152600f60209081526040918290208054835181840281018401909452808452606093928301828280156119a457602002820191906000526020600020905b8154815260200190600101908083116137135750505050509050919050565b61373a6137c0565b6001600160a01b03811661376957604051631e4fbdf760e01b8152600060048201526024015b60405180910390fd5b611f7981613d8c565b60026000540361379557604051633ee5aeb560e01b815260040160405180910390fd5b6002600055565b60015460ff16156115035760405163d93c066560e01b815260040160405180910390fd5b6001546001600160a01b036101009091041633146115035760405163118cdaa760e01b8152336004820152602401613760565b6137fb6140da565b6001805460ff191690557f5db9ee0a495bf2e6ff9c91a7834c1ba4fdd244a5e8aa4e537bd38aeae4b073aa335b6040516001600160a01b03909116815260200160405180910390a1565b600081815260116020526040812060038101549091600160a01b90910460ff169061387082806153c4565b60008581526010602052604081209192505b8360ff168110156139895760005b61389b60038661554d565b60ff168111613980576000816138b460ff8816856153c4565b6138be91906153e1565b60008181526020869052604090205490915060ff16801580159061390557508460006138eb8460016153e1565b815260208101919091526040016000205460ff8281169116145b8015613934575084600061391a8460026153e1565b815260208101919091526040016000205460ff8281169116145b156139765761396b898260ff1660011461395b5760018a01546001600160a01b03166140fd565b89546001600160a01b03166140fd565b505050505050505050565b5050600101613890565b50600101613882565b5060005b8360ff16811015613a885760005b6139a660038661554d565b60ff168111613a7f576000826139bf60ff8816846153c4565b6139c991906153e1565b60008181526020869052604090205490915060ff168015801590613a1257508460006139f860ff8a16856153e1565b815260208101919091526040016000205460ff8281169116145b8015613a4e5750846000613a27896002615566565b613a349060ff16856153e1565b815260208101919091526040016000205460ff8281169116145b15613a755761396b898260ff1660011461395b5760018a01546001600160a01b03166140fd565b505060010161399b565b5060010161398d565b5060005b613a9760038561554d565b60ff168111613bbe5760005b613aae60038661554d565b60ff168111613bb557600081613ac760ff8816856153c4565b613ad191906153e1565b60008181526020869052604081205491925060ff91821691613af5908916846153e1565b613b009060016153e1565b90506000613b1160ff8a16836153e1565b613b1c9060016153e1565b905060ff831615801590613b43575060008281526020889052604090205460ff8481169116145b8015613b62575060008181526020889052604090205460ff8481169116145b15613ba657613b998b8460ff16600114613b895760018c01546001600160a01b03166140fd565b8b546001600160a01b03166140fd565b5050505050505050505050565b84600101945050505050613aa3565b50600101613a8c565b5060005b613bcd60038561554d565b60ff168111613cd15760025b8460ff16811015613cc857600081613bf460ff8816856153c4565b613bfe91906153e1565b60008181526020869052604081205491925060ff91821691600190613c25908a16856153e1565b613c2f91906153f4565b905060006001613c4260ff8b16846153e1565b613c4c91906153f4565b905060ff831615801590613c73575060008281526020889052604090205460ff8481169116145b8015613c92575060008181526020889052604090205460ff8481169116145b15613cb957613b998b8460ff16600114613b895760018c01546001600160a01b03166140fd565b84600101945050505050613bd9565b50600101613bc2565b5060005b82811015613d055760008181526020839052604081205460ff169003613cfd57505050505050565b600101613cd5565b5060048401805460ff60e01b1916600160e01b179055600284015484546003860154613d3f916001600160a01b0390811691849116613e21565b60018501546003860154613d61916001600160a01b0390811691849116613e21565b8454600180870154613d84926001600160a01b0390811692911690600090613f38565b505050505050565b600180546001600160a01b03838116610100818102610100600160a81b031985161790945560405193909204169182907f8be0079c531659141344cd1fd0a4f28419497f9722a3daafe3b4186f6b6457e090600090a35050565b613dee61379c565b6001805460ff1916811790557f62e78cea01bee320cd4e420270b5ea74000d11b0c9f74754ebdbfc544b05a25833613828565b6001600160a01b038116613ea3576000836001600160a01b03168360405160006040518083038185875af1925050503d8060008114613e7c576040519150601f19603f3d011682016040523d82523d6000602084013e613e81565b606091505b5050905080611106576040516312171d8360e31b815260040160405180910390fd5b60405163a9059cbb60e01b81526001600160a01b0384811660048301526024820184905282169063a9059cbb906044016020604051808303816000875af1158015613ef2573d6000803e3d6000fd5b505050506040513d601f19601f82011682018060405250810190613f169190615230565b613f33576040516312171d8360e31b815260040160405180910390fd5b505050565b8015613ff3576001600160a01b0384166000908152600a60205260408120600301805491613f6583615263565b90915550506001600160a01b0383166000908152600a60205260408120600301805491613f9183615263565b90915550506001600160a01b0384166000908152600a60205260408120600401805491613fbd83615263565b90915550506001600160a01b0383166000908152600a60205260408120600401805491613fe983615263565b9190505550611106565b6000846001600160a01b0316836001600160a01b0316146140145784614016565b835b6001600160a01b0384166000908152600a6020526040812060010180549293509061404083615263565b90915550506001600160a01b0381166000908152600a6020526040812060020180549161406c83615263565b90915550506001600160a01b0383166000908152600a6020526040812060040180549161409883615263565b90915550506001600160a01b0381166000908152600a602052604081206004018054916140c483615263565b91905055506140d38382614225565b5050505050565b60015460ff1661150357604051638dfc202b60e01b815260040160405180910390fd5b6000828152601160205260408120600481018054600160e01b600168ff000000000000000160a01b03199091166001600160a01b0386161717905560028082015491929161414a916153c4565b905060006127106003548361415f91906153c4565b6141699190615407565b9050600061417782846153f4565b6000878152601360205260409020819055905081156141b05760045460038501546141b0916001600160a01b0390811691859116613e21565b835460018501546141d0916001600160a01b039081169116876000613f38565b6141d985614316565b846001600160a01b0316867f9e59e9b0ec1755ccaf2fd4a7ed4ad5b0a678626e91834aee53ebdf1356bd390a8360405161421591815260200190565b60405180910390a3505050505050565b6001600160a01b038083166000908152600a602052604080822060059081015493851683529082200154908183116142665761426183836153f4565b614270565b61427082846153f4565b9050600060055482116142835781614287565b6005545b90508361429482826153e1565b11156142c1576142a481856153e1565b6001600160a01b0387166000908152600a60205260409020600501555b808311156142f4576142d381846153f4565b6001600160a01b0386166000908152600a6020526040902060050155613d84565b505050506001600160a01b03166000908152600a602052604081206005015550565b6001600160a01b0381166000908152600a6020526040808220815160e081019092528054829082906143479061527c565b80601f01602080910402602001604051908101604052809291908181526020018280546143739061527c565b80156143c05780601f10614395576101008083540402835291602001916143c0565b820191906000526020600020905b8154815290600101906020018083116143a357829003601f168201915b505050918352505060018201546020820152600282015460408201526003820154606082015260048201546080820152600582015460a082015260069091015460ff16151560c090910152600c54909150600081815b8381101561450757856001600160a01b0316600c828154811061443b5761443b615429565b60009182526020909120600490910201546001600160a01b0316036144bd578460a00151600c828154811061447257614472615429565b9060005260206000209060040201600201819055508460200151600c828154811061449f5761449f615429565b90600052602060002090600402016003018190555060019250614507565b821580156144f25750600c81815481106144d9576144d9615429565b9060005260206000209060040201600201548560a00151115b156144ff57809150614507565b600101614416565b50811580156145165750606481105b156146d757600c80546001018155600052825b818111156145cd57600c61453e6001836153f4565b8154811061454e5761454e615429565b9060005260206000209060040201600c828154811061456f5761456f615429565b60009182526020909120825460049092020180546001600160a01b0319166001600160a01b039092169190911781556001808201906145b090840182615589565b506002828101549082015560039182015491015560001901614529565b506040518060800160405280866001600160a01b03168152602001856000015181526020018560a0015181526020018560200151815250600c828154811061461757614617615429565b600091825260209182902083516004929092020180546001600160a01b0319166001600160a01b0390921691909117815590820151600182019061465b908261530b565b5060408201516002820155606090910151600390910155600c54606410156146d257600c80548061468e5761468e615537565b60008281526020812060046000199093019283020180546001600160a01b0319168155906146bf6001830182614966565b5060006002820181905560039091015590555b6140d3565b81156140d35760005b6146eb6001856153f4565b811015613d8457600c6146ff8260016153e1565b8154811061470f5761470f615429565b906000526020600020906004020160020154600c828154811061473457614734615429565b906000526020600020906004020160020154101561495e576000600c828154811061476157614761615429565b6000918252602091829020604080516080810190915260049092020180546001600160a01b0316825260018101805492939192918401916147a19061527c565b80601f01602080910402602001604051908101604052809291908181526020018280546147cd9061527c565b801561481a5780601f106147ef5761010080835404028352916020019161481a565b820191906000526020600020905b8154815290600101906020018083116147fd57829003601f168201915b5050509183525050600282015460208201526003909101546040909101529050600c6148478360016153e1565b8154811061485757614857615429565b9060005260206000209060040201600c838154811061487857614878615429565b60009182526020909120825460049092020180546001600160a01b0319166001600160a01b039092169190911781556001808201906148b990840182615589565b506002828101549082015560039182015491015580600c6148db8460016153e1565b815481106148eb576148eb615429565b600091825260209182902083516004929092020180546001600160a01b0319166001600160a01b0390921691909117815590820151600182019061492f908261530b565b506040820151600282015560609091015160039091015581156149585761495582615655565b91505b506146e0565b6001016146e0565b5080546149729061527c565b6000825580601f10614982575050565b601f016020900490600052602060002090810190611f7991905b808211156149b0576000815560010161499c565b5090565b80356001600160a01b03811681146149cb57600080fd5b919050565b600080604083850312156149e357600080fd5b6149ec836149b4565b946020939093013593505050565b600060208284031215614a0c57600080fd5b5035919050565b803560ff811681146149cb57600080fd5b60008060008060808587031215614a3a57600080fd5b614a43856149b4565b935060208501359250614a58604086016149b4565b9150614a6660608601614a13565b905092959194509250565b634e487b7160e01b600052602160045260246000fd5b60038110614aa557634e487b7160e01b600052602160045260246000fd5b9052565b6001600160a01b038a81168252898116602083015260408201899052878116606083015260ff8716608083015285151560a0830152841660c08201526001600160401b03831660e08201526101208101614b07610100830184614a87565b9a9950505050505050505050565b600060208284031215614b2757600080fd5b614b30826149b4565b9392505050565b60008060408385031215614b4a57600080fd5b50508035926020909101359150565b6000815180845260005b81811015614b7f57602081850181015186830182015201614b63565b506000602082860101526020601f19601f83011685010191505092915050565b60208152614bb96020820183516001600160a01b03169052565b60006020830151610140806040850152614bd7610160850183614b59565b91506040850151614bf360608601826001600160a01b03169052565b506060850151848303601f19016080860152614c0f8382614b59565b925050608085015160a085015260a0850151614c3660c08601826001600160a01b03169052565b5060c085015160ff811660e08601525060e085015161010085810191909152850151610120614c688187018315159052565b959095015193019290925250919050565b6000815160e08452614c8e60e0850182614b59565b90506020830151602085015260408301516040850152606083015160608501526080830151608085015260a083015160a085015260c0830151151560c08501528091505092915050565b602081526000614b306020830184614c79565b60008060408385031215614cfe57600080fd5b82359150614d0e60208401614a13565b90509250929050565b602081526000614b306020830184614b59565b6001600160a01b038b8116825261014060208301819052600091614d508483018e614b59565b9150808c1660408501528382036060850152614d6c828c614b59565b608085019a909a529790971660a08301525060ff9490941660c085015260e084019290925215156101008301526101209091015250949350505050565b81516001600160a01b0390811682526020808401518216908301526040808401519083015260608084015191821690830152610120820190506080830151614df6608084018260ff169052565b5060a0830151614e0a60a084018215159052565b5060c0830151614e2560c08401826001600160a01b03169052565b5060e0830151614e4060e08401826001600160401b03169052565b5061010080840151614e5482850182614a87565b505092915050565b60006020808301818452808551808352604092508286019150828160051b87010184880160005b83811015614ee457888303603f19018552815180516001600160a01b0316845287810151608089860181905290614ebc82870182614b59565b838a0151878b0152606093840151939096019290925250509386019390860190600101614e83565b509098975050505050505050565b60008083601f840112614f0457600080fd5b5081356001600160401b03811115614f1b57600080fd5b6020830191508360208285010111156125dc57600080fd5b60008060208385031215614f4657600080fd5b82356001600160401b03811115614f5c57600080fd5b614f6885828601614ef2565b90969095509350505050565b6001600160a01b0383168152604060208201819052600090614f9890830184614c79565b949350505050565b6001600160a01b0385168152608060208201819052600090614fc490830186614b59565b6040830194909452506060015292915050565b6020808252825182820181905260009190848201906040850190845b818110156150185783516001600160a01b031683529284019291840191600101614ff3565b50909695505050505050565b6000806000806080858703121561503a57600080fd5b8435935061504a60208601614a13565b9250614a58604086016149b4565b60e08152600061506b60e083018a614b59565b60208301989098525060408101959095526060850193909352608084019190915260a0830152151560c090910152919050565b8015158114611f7957600080fd5b600080600080606085870312156150c257600080fd5b6150cb856149b4565b935060208501356150db8161509e565b925060408501356001600160401b038111156150f657600080fd5b61510287828801614ef2565b95989497509550505050565b6020808252825182820181905260009190848201906040850190845b818110156150185783518352928401929184019160010161512a565b634e487b7160e01b600052604160045260246000fd5b60006020828403121561516e57600080fd5b81356001600160401b038082111561518557600080fd5b818401915084601f83011261519957600080fd5b8135818111156151ab576151ab615146565b604051601f8201601f19908116603f011681019083821181831017156151d3576151d3615146565b816040528281528760208487010111156151ec57600080fd5b826020860160208301376000928101602001929092525095945050505050565b6001600160a01b039384168152919092166020820152604081019190915260600190565b60006020828403121561524257600080fd5b8151614b308161509e565b634e487b7160e01b600052601160045260246000fd5b6000600182016152755761527561524d565b5060010190565b600181811c9082168061529057607f821691505b602082108103611bb157634e487b7160e01b600052602260045260246000fd5b601f821115613f3357600081815260208120601f850160051c810160208610156152d75750805b601f850160051c820191505b81811015613d84578281556001016152e3565b600019600383901b1c191660019190911b1790565b81516001600160401b0381111561532457615324615146565b61533881615332845461527c565b846152b0565b602080601f83116001811461536757600084156153555750858301515b61535f85826152f6565b865550613d84565b600085815260208120601f198616915b8281101561539657888601518255948401946001909101908401615377565b50858210156153b45787850151600019600388901b60f8161c191681555b5050505050600190811b01905550565b80820281158282048414176153db576153db61524d565b92915050565b808201808211156153db576153db61524d565b818103818111156153db576153db61524d565b60008261542457634e487b7160e01b600052601260045260246000fd5b500490565b634e487b7160e01b600052603260045260246000fd5b8183823760009101908152919050565b60208152816020820152818360408301376000818301604090810191909152601f909201601f19160101919050565b6001600160401b0383111561549557615495615146565b6154a9836154a3835461527c565b836152b0565b6000601f8411600181146154d757600085156154c55750838201355b6154cf86826152f6565b8455506140d3565b600083815260209020601f19861690835b8281101561550857868501358255602094850194600190920191016154e8565b50868210156155255760001960f88860031b161c19848701351681555b505060018560011b0183555050505050565b634e487b7160e01b600052603160045260246000fd5b60ff82811682821603908111156153db576153db61524d565b60ff81811683821602908116908181146155825761558261524d565b5092915050565b818103615594575050565b61559e825461527c565b6001600160401b038111156155b5576155b5615146565b6155c381615332845461527c565b6000601f8211600181146155f157600083156155df5750848201545b6155e984826152f6565b8555506140d3565b600085815260209020601f19841690600086815260209020845b8381101561562b578286015482556001958601959091019060200161560b565b50858310156153b45793015460001960f8600387901b161c19169092555050600190811b01905550565b6000816156645761566461524d565b50600019019056feaa62b432dfd3b0bc94486d59fd8b60718bc3b454376f9890dd601445c34f9ed5a264697066735822122044fe1a80fe62554d2521965327373a1987b1bd79d5b84ee7a79f95eb7047743064736f6c63430008140033",
  "linkReferences": {},
  "deployedLinkReferences": {}
}